:100000000C9434000C943E000C943E000C943E0082
:100010000C943E000C943E000C943E000C943E0068
:100020000C943E000C943E000C943E000C943E0058
:100030000C943E000C943E000C943E000C943E0048
:100040000C943E000C943E000C943E000C943E0038
:100050000C943E000C943E000C943E000C943E0028
:100060000C943E000C943E0011241FBECFEFD8E04C
:10007000DEBFCDBF0E9440000C9458000C940000DD
:10008000CF93DF93CDB7DEB70E944C0085E290E0BE
:1000900022E0FC012083FACFCF93DF93CDB7DEB708
:1000A00084E290E0FC0110820000DF91CF9108957E
:0400B000F894FFCFF2
:00000001FF
